:0E0000000C94A1000C9400000C9400000C94D1
:10000E0000000C9400000C9400000C9400000C9462
:10001E0000000C9400000C9400000C9400000C9452
:10002E00D0000C9400000C9400000C9400000C9472
:10003E0000000C9400000C9400000C9400000C9432
:10004E0000000C9400001027E80364000A00010071
:10005E00001000011000010057414954494E47005D
:10006E002E005245414459004469726563740D0A6D
:10007E000050574D3D2564004449524543540042BB
:10008E0061636B0D0A004241434B004C6566740D73
:10009E000A005455524E204C45465400526967682A
:1000AE00740D0A005455524E20524947485400537D
:1000BE007065656420486967680D0A005370656550
:1000CE0064204C6F770D0A004C69676874204F6E80
:1000DE000D0A004C69676874204F66660D0A00535E
:1000EE00746F700D0A0053544F5000486F726E209B
:1000FE0069732052696E670D0A0080C008006002A5
:10010E006600020068026E0006006A0270000700B8
:10011E00700286000500770294000A007C02A0009F
:10012E000B008602B20005009102F4000200AA0242
:10013E0008010000F894EE27ECBBF1E0F5BFE5BF37
:10014E00F8E1F1BDE1BD8DE0A2E0BB27ED938A950C
:10015E00E9F780E098E0A0E6ED930197E9F7EAE091
:10016E00F1E085919591009761F0A591B59105907B
:10017E001590BF01F00105900D920197E1F7FB017B
:10018E00F0CFEFE5EDBFE8E0EEBFC0E6D2E00C94B5
:10019E00D10018957724E0E0EBBBEAE0EABBE0E0A3
:1001AE00E8BBE8E0E7BBE0E0E5BBEFEFE4BBE0E097
:1001BE00E2BBEFEFE1BBEDE6E3BFE0E0E2BFECE276
:1001CE00ECBFE0E0EFBDEEBDEDBDECBDE7BDE6BDC5
:1001DE00EBBDEABDE9BDE8BDE2BDE5BDE4BDE3BDF5
:1001EE00E5BFE4BFE1E0E9BFE0E0EBB9E8E1EAB981
:1001FE00E6E0E0BDE0E0E0BDECE0E9B9E0E8E8B95A
:10020E00E0E0E0BFE6B9EDB9E6BFA0E10E94400430
:10021E007894772029F5E0E00E948704A0E6B2E00A
:10022E000E942F04E8E04E2EEBE0E41578F0E0E0BB
:10023E00EA93A42D0E940104A8E6B2E00E942F04C6
:10024E00A0E2B3E00E944A054394EECF73940E945D
:10025E000E04E0E00E948704AAE6B2E00E942F049A
:10026E00D6D05E2EE52DF0E0E436A0E0FA0791F44C
:10027E00E6E7F0E00E948B04D99ADB980E9499047D
:10028E000E94B104E5E00E94B504A0E7B2E00E942E
:10029E002F04BBC0E236A0E0FA0791F4EDE8F0E0DF
:1002AE000E948B04D998DB9A0E94B9040E94B10473
:1002BE00E6E00E94B504A7E7B2E00E942F04A5C0B5
:1002CE00EC36A0E0FA0791F4E9E9F0E00E948B0425
:1002DE00D998DB9A0E9499040E94B104E3E00E942F
:1002EE00B504ACE7B2E00E942F048FC0E237A0E065
:1002FE00FA0791F4EAEAF0E00E948B04D99ADB98AF
:10030E000E94B9040E94B104E3E00E94B504A6E87D
:10031E00B2E00E942F0479C0EB32A0E0FA0771F42C
:10032E00EDEBF0E00E94D104E13F18F4ECB7E65F8C
:10033E00ECBF0E94D9040E94B10467C0ED32A0E068
:10034E00FA0771F4EAECF0E00E94D104E43118F0FF
:10035E00ECB7EA50ECBF0E94D9040E94B10455C01C
:10036E00EF34A0E0FA0731F4E6EDF0E00E94EF047E
:10037E00A89A4AC0EF36A0E0FA0729F4E1EEF0E0C1
:10038E000E94EF0440C0E337A0E0FA0791F4EDEECF
:10039E00F0E00E94EF040E94F6040E94D9040E942D
:1003AE00B104E6E00E94B504A1E9B2E00E942F0478
:1003BE002CC0E836A0E0FA0741F5E9EFF0E00E9424
:1003CE00EF04939A9498A8EEB3E00E944A0593988E
:1003DE0094980E94F604C89B10C00E94F604939A4B
:1003EE009498A89A0E94FB04939A9498A8980E94B5
:1003FE00FB04939A9498A89A07C0D99ADB98AC9A62
:10040E00AE9893989498A898A99803CFFFCF5F9B26
:10041E00FECFECB10895AA935D9BFECFE881ECB9B7
:10042E000C946C04BA93AA93AA81F5DFA881B981C2
:10043E000E9401050C943E04BA93AA931A930A9350
:10044E00AA81BB8112960E945C05309729F1AA8180
:10045E00BB8114960E945C058F01309761F00230CB
:10046E00E0E01E07C0F0F80131978F01AA81BB8131
:10047E001496ED93FC93AA81BB8112960E940105FE
:10048E003197AC81A083AA81BB810E945C05FF23BA
:10049E0012F00E94010506C0AA81BB81EFEFFFEFAB
:1004AE00ED93FC931981088125960895BA93AA932A
:1004BE0026970E94690510E0AC85BD85E0E0F0E06E
:1004CE00ED93FC93EA89FB893196EA8BFB8B31978E
:1004DE00E4912E2FE03011F40C948C03E12FE030D8
:1004EE0039F4253211F411E002C00E9407050CC147
:1004FE00E130A9F4253219F40E94070504C112E077
:10050E0040E000E02D3211F401E0FEC02B3211F478
:10051E004BE2FAC0203211F440E2F6C002C0E230E3
:10052E0039F450E013E0203311F40068EDC004C03C
:10053E00E33011F00C948B03203310F02A3308F0C3
:10054E0007C0AAE05A9F502DE22FE0535E0FDCC089
:10055E00E22FE33649F40E940E05E889F989A48159
:10056E00AA930E941405CFC0E33741F40E940E05F2
:10057E000E941A050E946E041E2F0AC0E03761F415
:10058E000E940E050E941A050E947A041E2F086012
:10059E0002600F7730E035C0E43611F0E93611F421
:1005AE00046002C0E53731F4E4E5F0E0EE83FF834A
:1005BE0015E00DC0E83511F4086004C0E83711F0FD
:1005CE000C948A03EEE5F0E0EE83FF8314E002FF65
:1005DE0014C00E940E050E942405AB85AA233AF48E
:1005EE00EA85FB850E945805EA87FB874DE240307D
:1005FE0011F01F5F01C00B7F04C00E940E050E9408
:10060E00240500FD11C0151778F407FF08C002FF7E
:10061E0004C00B7F242F115001C020E301C020E243
:10062E000E9407055150EFCF312F01FF17C0303018
:10063E00A1F003FF06C0EE81FF812591EE83FF83BB
:10064E0005C0AE81BF812D91AE83BF830E94070589
:10065E00503009F051503150EACF4BC020E3EE81BB
:10066E00FF810E946005E887F987EE81FF8132964F
:10067E00EE83FF83E885F985AA85BB85AE17BF0794
:10068E0050F02F5FA885B985EA85FB85EA1BFB0B29
:10069E00EA87FB87EFCF2A3328F003FF02C0295FDA
:1006AE0001C0295D04FD1AC0213320F4A885B98547
:1006BE00119709F409C0531710F000FF01C013C0C1
:1006CE0020E207FF0BC020E3006102FF07C00B7F93
:1006DE004A930E941405503009F051500E940705AC
:1006EE00503009F051503150A885B985129708F055
:1006FE00B5CF00FF08C0503031F05150E0E2EA9320
:10070E000E941405F8CF10E0DDCEAC85BD850E94A9
:10071E005C050E94700564960895FF92F82E269748
:10072E000E946B050E942C05309719F4EFEFFFEF36
:10073E001DC0DE0116960E9454058D010E942C05E7
:10074E00EE83FF83E0E0E887E987DE011A960E94D8
:10075E003305E3E2F2E0FA93EA93DE011A96A6DE9F
:10076E009F01AE81BF81E0E0EC93F9010E9472051A
:10077E002A96FF900895FF92F82E26971A930A93C1
:10078E00DE0114960E9454058D01E0E0EC83ED83AA
:10079E00EE83EF83DE0118960E943305E9E1F2E065
:1007AE00FA93EA93DE01189681DE19810881289664
:1007BE00FF900895AA93E8B3EF70AE2FE881E07F23
:1007CE00EA2BE8BB85E08A95F1F7DE9A8DE08A95F3
:1007DE00F1F7DE988DE08A95F1F777C0AA93A8819C
:1007EE00E9DFE881E295E883A881E4DF85E88A9570
:1007FE00F1F76BC0AA93E881F0E0E655FD4FE0817A
:10080E00A981AE0FEBDF6980988022960895A2E051
:10081E000E943C05ACE0E2DFA1E00E943C05E0E076
:10082E009E2E6E2E0895AA93A881AA3011F06814F8
:10083E0048F0E0E0EA939394A92DDCDFA881AA307A
:10084E0009F443C06394DC9AA881C8DFDC983DC0EC
:10085E00BA93AA931A93A981BA81ED91A983BA8307
:10086E001E2FE03019F0A12FDEDFF5CF1881239671
:10087E000895AA93E7B3E06FE7BBD69AD49AD59AB8
:10088E00DE98DC98DD988880E881E058E093AC0231
:10089E00E881E054E093AD02A4E1B0E00E944A0585
:1008AE000E9442050E9442050E944205A0E282DF9C
:1008BE0088EC90E00197F1F7A8E290DFA4E08EDFDC
:1008CE00A5E88CDFA6E08ADFA2DF21960895BA9311
:1008DE00AA93A991B991EE27FF276D91662311F086
:1008EE003196FBCF0895BA93AA93AA27BB27E99115
:1008FE00F9910590002011F01196FBCFFD0108959E
:10090E00EA93A0E00C940104FA93EA9380E00E942B
:10091E00C2032296D998DB98AC98AE98A4E6B0E0C4
:10092E000C944A05AC9AAE980E940E04E6E9F2E0E9
:10093E00FA93EA93EFE7F0E0FA93EA93ECB7FF2726
:10094E00662777270E94640584E00E949403289608
:10095E00E4E0D6CFA6E9B2E00C942F04EA93A1E02E
:10096E000C940104AC98AE9A0E940E04E6E9F2E0F3
:10097E00FA93EA93EFE7F0E0FA93EA93ECB7FF27E6
:10098E00662777270E94640584E00E9494032896C8
:10099E00E4E0B6CFFA93EA9380E00E94C203229677
:1009AE00ECB708950E940E04E6E9F2E0FA93EA939A
:1009BE00EFE7F0E0FA93EA93ECB7FF276627772785
:1009CE000E94640584E00E9494032896E4E098CF88
:1009DE00FA93EA9380E00E94C20322960895D99872
:1009EE00DB98AC98AE980895A998A4EFB1E00E9458
:1009FE004A05F5CFED91FD913196FE93EE93089554
:100A0E002A93AD85BE85EF85F88909950895E88905
:100A1E00F9893497E88BF98B0895AD85BE85EF85FE
:100A2E00F88909950895A889B98914960E945C05DC
:100A3E00EE83FF83AE81BF810895A889B98914968C
:100A4E000E945C05EA87FB870895DE011C960E94D2
:100A5E0054050E945C0508950E9454050E945C0591
:100A6E00FA93EA931A930A9308950E94F503A3E06A
:100A7E00B0E00C944A05A0E30E94E10388EC90E0FC
:100A8E000197F1F70895109639F080ED97E00197F0
:100A9E00F1F7A8951197C9F708950024AF0DB01D71
:100AAE000895F195E195F0400895ED91FC9111971F
:100ABE0008950590F491E02D08957A936A93FA9330
:100ACE00EA9308955A934A933A932A931A930A9360
:100ADE0008955D814C813B812A8119810881089599
:00000001FF
